:100000000C943C020C946D020C946D020C946D02E5
:100010000C946D020C946D020C946D020C946D02A4
:100020000C946D020C946D020C946D020C946D0294
:100030000C946D020C946D020C946D020C946D0284
:100040000C946D020C946D020C946D020C946D0274
:100050000C946D020C946D020C946D020C94520D74
:100060000C946D020C946D020C946D020C946D0254
:100070000C946D020C946D020C946D020C946D0244
:100080000C946D020C946D020C946D020C946D0234
:100090000C946D020C946D020C946D020C946D0224
:1000A0000C946D020C946D020C946D020C946D0214
:1000B0000C946D020C946D020C946D020C946D0204
:1000C0000C946D020C946D020C946D020C946D02F4
:1000D0000C946D020C946D020C946D020C946D02E4
:1000E0000C946D023F094209310935093B09790930
:1000F00046094A095009540958095E096209660906
:1001000079096C09700974096E0F730F780F820FEB
:100110008C0F0510960F9E0FA60FB00FBA0FC40FCD
:10012000D30FDD0F0510E70FF10FFB0F0C9435090E
:100130000C94730F0C9431230C9476110C94E411ED
:100140000C94E2180C94C3030C94D5210C9467030F
:100150000C9460250C944D180C94C40F0C94BE04A0
:100160000C947F1B0C94B6020C949E0F0C944623A7
:100170000C944A090C94CE1A0C949F160C94C21736
:100180000C946E0F0C945E1A0C94CD170C94780F8F
:100190000C94C1020C94E70F0C94EE210C94D92E10
:1001A0000C949C020C9469150C948D180C942011DD
:1001B0000C9457040C946D180C94D3170C94E726E8
:1001C0000C94B7210C94D30F0C94DC040C94F91903
:1001D0000C9442090C94A60F0C94C0170C94711740
:1001E0000C94FB0F0C9454160C94D4170C94960F8B
:1001F0000C9411170C9470090C94CD210C94F10FF0
:100200000C9454170C9494170C946C090C94540986
:100210000C94BD180C94C9230C94941C0C940203E8
:100220000C9413170C940D1B0C9447170C94F9168F
:100230000C94E5210C941C180C94C5190C944316CD
:100240000C9458090C94C5170C9446090C94500949
:100250000C948C0F0C94AC100C94B2170C940E11DF
:100260000C941F030C94FD2E0C9486250C943A17C5
:100270000C945B170C942C1C0C9416260C9446259D
:100280000C9479090C944E260C94D1210C945605AB
:100290000C942D270C94A4140C9431090C94EC1C90
:1002A0000C943E030C940D040C9474090C941624C5
:1002B0000C943F090C94BA130C94D1170C94B2020D
:1002C0000C9498050C9466090C94CF170C94620951
:1002D0000C94B00F0C94321D0C94AC1C0C94DD0FDC
:1002E0000C94D7170C9467240C9481190C94051066
:1002F0000C94820F0C940E050C945E090C949B02D6
:100300000C941D1B0C94B6170C94C9100C94211757
:100310000C943B090C9473100C9410030C94161756
:100320000C9489100C94971B0C94F1100C947A097E
:100330000C94BA0F005EBCE2613FDD83C29C7E205C
:10034000A3FD1F41009D23BE46DB65F88C11AF3233
:10035000CA57E97400000A0B02090C0D0E080703C6
:100360000401000000000000000000000000000088
:10037000000000000000000000000000000000007D
:10038000121110000000000000000000000000003A
:10039000000000000000000000000000200023001A
:1003A000260029002C002F0032000001000003016C
:1003B0000601090100002200250028002B002E0064
:1003C0003100340002010000050108010B010000AA
:1003D0002100240027002A002D00300033000101F5
:1003E0000000040107010A01010210202008081082
:1003F0002040102040800201020108040201010295
:10040000040810204080804020100804020180046D
:1004100002018040201008040201080402010102C8
:1004200004081020408001020408102040800505C7
:100430000505070508080808020202020A0A08085A
:100440000404040401010101010101010303030388
:1004500003030303040707070C0C0C0C0C0C0C0C17
:100460000202020206060606060606060B0B0B0B28
:100470000B0B0B0BFD2ED92E11241FBECFEFD1E29B
:10048000DEBFCDBF00E00CBF14E0A0E0B2E0E0E8CA
:10049000F9E600E00BBF02C007900D92AA35B10744
:1004A000D9F725E0AAE5B4E001C01D92AB37B20749
:1004B000E1F712E0CBE3D2E000E006C021970109AA
:1004C000802FFE010E946533CA33D10780E0080700
:1004D000A9F70E9474270C94AE340C940000FC0120
:1004E00020812EBD9B012150310941F051810DB475
:1004F00007FEFDCF4EB55EBD4193F5CF615071094A
:10050000FC01E60FF71F0DB407FEFDCF8EB580830B
:100510000895E091AC04F091AD0490818091AB041A
:1005200080958923808308958EBD00000DB407FE59
:10053000FDCF8EB508950895CF93DF931F92CDB769
:10054000DEB76983DC01ED91FC910280F381E02D3F
:1005500041E050E0BE016F5F7F4F19950F90DF9132
:10056000CF910895FC01818D928D0895FC019485B1
:10057000FB018485981303C081E0983008F080E087
:100580000895CF92DF92EF92FF920F931F93CF9334
:10059000DF9300D000D0CDB7DEB78C016B017A01BC
:1005A000FC01808D883010F40E94F9258EE693E0DE
:1005B0009A838983F60182819381A481B5818B839B
:1005C0009C83AD83BE83B701CE0101960E94A4092E
:1005D000F801808F883030F4F586E486128E118E13
:1005E00081E001C080E026960FB6F894DEBF0FBE12
:1005F000CDBFDF91CF911F910F91FF90EF90DF90D2
:10060000CF900895CF93DF93FC01808D883028F43C
:10061000EF010E94F92588E0888FDF91CF9108953E
:10062000FC01808D883040F4218D328D232B21F008
:100630000E94E82390E008958FEF9FEF0895CF93F5
:10064000DF93FC01218D328D2115310519F48FEFD7
:100650009FEF11C0EC014217530708F0A901888DE4
:100660000E9470241816190694F7298D3A8D281BBC
:10067000390B3A8F298FDF91CF9108950F931F93F4
:10068000CF93DF931F92CDB7DEB7FC01218D328D62
:10069000232B61F08C0141E050E0BE016F5F7F4F82
:1006A000808D0E947024181619061CF08FEF9FEFA2
:1006B00008C0F801818D928D0197928F818F898179
:1006C00090E00F90DF91CF911F910F9108950F93BC
:1006D0001F93CF93DF93CDB7DEB728970FB6F8946B
:1006E000DEBF0FBECDBF8C01D80159964D915C91F4
:1006F0005A974115510551F0ED91FC91048CF58DFF
:10070000E02D60E070E0C8011995EECFF801808D12
:100710000E943024892B51F148E050E0BE016F5F08
:100720007F4FD80158968C910E9470241816190694
:10073000FCF4D801509684E0FE01319601900D92B0
:100740008A95E1F78D8190E0982F88272E81820F7E
:10075000911DF801958B848B8F8190E0982F8827CD
:100760002885820F911D928F818F02C080E090E0DA
:1007700028960FB6F894DEBF0FBECDBFDF91CF91A4
:100780001F910F9108957F928F929F92AF92BF9287
:10079000CF92DF92EF92FF920F931F93CF93DF934D
:1007A0001F921F92CDB7DEB77C014B01742EC52E70
:1007B000FC01A688B788D08CCE0101960E943D1E10
:1007C00089819A810E949E138D2D0E94C622072D39
:1007D0001C2D8017910708F48C019801A401B50124
:1007E0008D2D0E9446220E949D13F70186899789CC
:1007F000800F911F978B868BC8010F900F90DF9110
:10080000CF911F910F91FF90EF90DF90CF90BF900D
:10081000AF909F908F907F900895DF92EF92FF921C
:100820000F931F93CF93DF931F921F92CDB7DEB725
:10083000FB01DC0157961C921E92569722812111D2
:1008400009C02381211106C02481211103C0258103
:10085000222309F141155105F1F07A018F01FC01C4
:10086000D08CCE0101960E943D1E89819A810E9402
:100870009E13A8014E5F5F4F24E030E06CE070E013
:100880008D2D0E940D13B7018D2D0E941F130E9404
:100890009D1381E001C080E090E00F900F90DF9108
:1008A000CF911F910F91FF90EF90DF900895AF923D
:1008B000BF92CF92DF92EF92FF920F931F93CF934D
:1008C000DF93CDB7DEB7AF970FB6F894DEBF0FBE9C
:1008D000CDBF8C015B016A01CE0101960E948F0A97
:1008E0008EE6E82E83E0F82EFBA6EAA61CA61DA63F
:1008F0001EA61FA68091BA049091BB04A091BC04CF
:10090000B091BD048EA39FA3A8A7B9A78B839C8396
:10091000AD83BE8318861F82AE01465D5F4FB50171
:10092000CE0101960E94F50A81309105B1F4D801FB
:10093000ED91FC910488F589E02DFDA2ECA28CA537
:100940009DA5AEA5BFA58EA39FA3A8A7B9A7A601E5
:10095000BE016C5D7F4FC8011995AF960FB6F89434
:10096000DEBF0FBECDBFDF91CF911F910F91FF90E2
:10097000EF90DF90CF90BF90AF9008950F931F93AB
:10098000CF93DF93EC018B01888D883010F40E94A7
:10099000F925B80182E00E94E713888F883030F48F
:1009A0001D870C871A8E198E81E001C080E0DF91CF
:1009B000CF911F910F9108950F931F93CF93DF93C2
:1009C0001F921F92CDB7DEB7FC0124852830E0F4DA
:1009D0008C01CE0101960E943D1E89819A810E9460
:1009E0009E1322E030E0AE014F5F5F4F60E170E0A8
:1009F000F80184850E944B1309811A811027012771
:100A000010270E949D1302C000E010E0C8010F9063
:100A10000F90DF91CF911F910F910895EF92FF9268
:100A20000F931F93CF93DF9300D01F92CDB7DEB704
:100A30008C017B01FB018485883050F08EE693E0C9
:100A4000F80191838083128213821482158222C05E
:100A5000CE0101960E943D1E89819A810E949E13BB
:100A600024E030E0AE014F5F5F4F6CE070E0F701D3
:100A700084850E944B130E949D138EE693E0F8013B
:100A80009183808389819A81AB81BC8182839383A6
:100A9000A483B583C8010F900F900F900F90DF9142
:100AA000CF911F910F91FF90EF9008950F931F9397
:100AB000CF93DF931F921F92CDB7DEB7FC01248541
:100AC0002830E0F48C01CE0101960E943D1E898100
:100AD0009A810E949E1322E030E0AE014F5F5F4F8B
:100AE00064E070E0F80184850E944B1309811A814B
:100AF0001027012710270E949D1302C000E010E07C
:100B0000C8010F900F90DF91CF911F910F91089521
:100B1000CF93C82F462F61E070E00E945D1361E023
:100B200070E08C2F0E947B138111F9CFCF91089533
:100B30001F93CF93DF931F921F92CDB7DEB7FC01B7
:100B4000108DCE0101960E943D1E89819A810E94DE
:100B50009E1360E270E0812F0E94880562E070E0E1
:100B6000812F0E947B1384FD1CC062E070E0812F06
:100B70000E947B1383FF0AC048E162E070E0812F8E
:100B80000E945D130E949D1380E014C00E949D137B
:100B9000CE0101960E943D1E89819A810E949E137A
:100BA000DDCF40E162E070E0812F0E945D130E9482
:100BB0009D1381E090E00F900F90DF91CF911F91F6
:100BC0000895E091AC04F091AD0490818091AB0464
:100BD000892B80830895AF92BF92CF92DF92EF92DC
:100BE000FF920F931F93CF93DF9300D01F92CDB747
:100BF000DEB78C016B017A018091AE048333F1F48E
:100C00005B016801C40ED51E0C151D0509F460C0FA
:100C10000E9489028FE00E949402812F0E94940218
:100C2000802F0E9494020F5F1F4F80E00E94940269
:100C3000F50181935F010E94E105E6CF8433F1F471
:100C40000E94890219830A838F2D8F778B83EC8210
:100C500064E070E0CE0101960E946F02A70160E09F
:100C600070E0C6010E94A734E114F10421F0B7013D
:100C7000C6010E946F020E94E1052AC00E948902FB
:100C80000F3F110509F020F419820A831B821DC051
:100C900017FD0BC019820A8333E0169507953A9524
:100CA000E1F7007E08600B8310C0C80126E096952E
:100CB00087952A95E1F719830A83807E0115104CE8
:100CC00010F4806101C088618B8363E070E0C2CF63
:100CD000C7010F900F900F900F90DF91CF911F9150
:100CE0000F91FF90EF90DF90CF90BF90AF9008955D
:100CF000AF92BF92CF92DF92EF92FF920F931F932A
:100D0000CF93DF93CDB7DEB728970FB6F894DEBF49
:100D10000FBECDBF8C017B016A018091AE0483338D
:100D2000E1F45801A40EB51E0A151B0509F48BC089
:100D30000E94890280EF0E949402812F0E949402F7
:100D4000802F0E9494020F5F1F4FF70181917F0156
:100D50000E9494020E94E105E7CF843321F50E94AE
:100D6000890219830A838D2D80688B83CC8264E08D
:100D700070E0CE0101960E946F0287010C0D1D1DCF
:100D8000E016F10669F0F70181917F010E9494025B
:100D9000F7CFB6016D5F7F4FCE0101960E946F02C3
:100DA0000E94E10550C00E9489020F3F110509F021
:100DB00020F419820A8384E01CC017FD0BC019823D
:100DC0000A8333E0169507953A95E1F7007E0C60AB
:100DD0000B8310C0C80126E0969587952A95E1F708
:100DE00019830A83807E0115104C10F4846101C0C0
:100DF0008C618B8326E0C216D10498F420E0822F08
:100E000090E08C159D0528F6E4E0F0E0EC0FFD1F66
:100E1000E80FF91FD701A80FB91F8C9180832F5FAE
:100E2000EECF63E070E0CE0101960E946F02870171
:100E30000C0D1D1DF70181917F010E949402E016A7
:100E4000F106C1F7ADCFC60128960FB6F894DEBF04
:100E50000FBECDBFDF91CF911F910F91FF90EF900B
:100E6000DF90CF90BF90AF900895CF93DF931F9204
:100E7000CDB7DEB741E050E0BE016F5F7F4F80E04D
:100E800090E00E94EB0589810F90DF91CF9108954A
:100E9000CF93DF931F92CDB7DEB7898341E050E057
:100EA000BE016F5F7F4F80E090E00E9478060F9058
:100EB000DF91CF910895CF93DF9380E80E94480798
:100EC000C4E1D0E00E943507882351F061E070E072
:100ED00080E090E00E94AF0A2197A1F780E001C076
:100EE00081E0DF91CF910895DC0180E0615098F0BE
:100EF0002D91982F9227E92FEF70F0E0EC5CFC4FDA
:100F0000249192959F70E92FF0E0EC5BFC4FE49107
:100F1000822F8E27EBCF0895FC0190810180F28112
:100F2000E02DF8948181892B81832281892F8095FE
:100F300028232283A7E0B0E01197F1F721818223D3
:100F40008183A3E2B0E01197F1F780817894EFEC10
:100F5000F0E03197F1F7982381E009F480E00895FB
:100F6000FC0190810180F281E02D892F809560FF46
:100F700012C0F8942281822382838181892B81830C
:100F8000A3E2B0E01197F1F78281982B92837894D5
:100F900087ED90E011C0F8942281822382838181C1
:100FA000892B8183AFEFB0E01197F1F78281982B05
:100FB000928378948FE090E00197F1F70895DF92A3
:100FC000EF92FF920F931F93CF93DF93EC01D62EF6
:100FD000E42E08E010E0FF24F39461E08D2D8F21D2
:100FE00009F460E0CE010E94B007FF0C0150110926
:100FF000A1F7E11010C0F894E981FA81918188810C
:10100000809589238183E981FA8192818881809505
:10101000892382837894DF91CF911F910F91FF9064
:10102000EF90DF900895EF92FF920F931F93CF936D
:10103000DF938C017B0140E065E50E94DF07E7015B
:1010400088E0E80EF11C699140E0C8010E94DF07CA
:10105000CE15DF05C1F7DF91CF911F910F91FF9062
:10106000EF900895DC012C911196ED91FC9112976F
:10107000F8948181922F90958923818378948DE7CC
:1010800043E050E0815021F1DA011197F1F730810E
:101090003223C1F3F8948281892382838181822B58
:1010A00081837894ABE7B7E01197F1F7F8948181E9
:1010B0009823918383E191E00197F1F780812823C0
:1010C00081E009F080E07894E3E6F6E03197F1F70B
:1010D00008958F929F92AF92BF92CF92DF92EF923C
:1010E000FF920F931F93CF93DF938C017A01FC0142
:1010F000868197810E94130840E06EEBF80186819B
:1011000097810E94DF07E7015701F9E0AF0EB11C9C
:10111000F8018680978088E0C82ED12CF12CEE242F
:10112000E394C4010E948C078111FE28EE0CF1E0CB
:10113000CF1AD108B1F7F992AC16BD0649F7F801FC
:10114000868197810E94320891E0813009F090E019
:10115000892FDF91CF911F910F91FF90EF90DF903A
:10116000CF90BF90AF909F908F900895EF92FF9295
:101170000F931F93CF93DF93CDB7DEB729970FB6A9
:10118000F894DEBF0FBECDBF8C017B01FC018681D0
:1011900097810E943208882311F1AE014F5F5F4FA3
:1011A000B701C8010E9469088823C9F068E0CE0130
:1011B00001960E9474079985891311C08D818F3320
:1011C00061F020F48F3159F489E00CC08F3519F0AB
:1011D0008F3739F004C08BE005C08AE003C080E09F
:1011E00001C08CE029960FB6F894DEBF0FBECDBFCC
:1011F000DF91CF911F910F91FF90EF9008953FB72E
:10120000F8948091A7049091A804A091A904B091AA
:10121000AA0426B5A89B05C02F3F19F00196A11D71
:10122000B11D3FBFBA2FA92F982F8827820F911D7C
:10123000A11DB11DBC01CD0142E0660F771F881FC3
:10124000991F4A95D1F7089590E0FC013197E2315A
:10125000F10508F04EC08827EE58FF4F8F4F0C94D1
:101260006533809180008F7703C0809180008F7DEF
:1012700080938000089580918000877FF9CF84B5A6
:101280008F7702C084B58F7D84BD08958091B000B2
:101290008F7703C08091B0008F7D8093B000089558
:1012A000809190008F7707C0809190008F7D03C060
:1012B00080919000877F8093900008958091A00096
:1012C0008F7707C08091A0008F7D03C08091A00020
:1012D000877F8093A0000895809120018F7707C0B9
:1012E000809120018F7D03C080912001877F8093B2
:1012F00020010895CF92DF92EF92FF920F931F93F8
:10130000CF93DF936C017A018B01C0E0D0E0CE1562
:10131000DF0581F0D8016D918D01D601ED91FC9131
:101320000190F081E02DC6011995892B11F02196CD
:10133000EECF7E01C701DF91CF911F910F91FF90FA
:10134000EF90DF90CF9008958F929F92AF92BF92CF
:10135000CF92DF92EF92FF920F931F93CF93DF9381
:10136000CDB7DEB760970FB6F894DEBF0FBECDBF26
:101370007C019091AE04992309F4BDC0933311F020
:1013800008E001C004E05B01CE0101960E943D1E11
:1013900089819A810E949E139E012F5F3F4F6901B0
:1013A000490110E0812F0E949913F40181934F01AC
:1013B0008823C9F01F5F0113F5CF10E0F60181917A
:1013C0006F018D3159F0883149F08A51823030F007
:1013D0001F5F0113F3CF0E949D138DC060E170E089
:1013E000812F0E948805C12ED12CF601EE0FFF1F20
:1013F000EE56FB4F1182108283EE93E00197F1F7D6
:1014000042E860E070E0812F0E945D134FEF62E0E0
:1014100070E0812F0E945D13A114B10411F0B50199
:1014200013C0809100029091010201968115F0ECA9
:101430009F0710F480E090EC9093010280930002EB
:101440006091000270910102812F0E94351386E0A5
:10145000EAECF2E0DE01199601900D928A95E1F72F
:10146000F70183818F778C8784818D8785818E8733
:10147000A7014E5F5F4F24E030E06CE070E0812F09
:101480000E940D13B501812F0E941F1326E030E04A
:10149000AE01475F5F4F66E070E0812F0E940D1341
:1014A00061E070E0812F0E94880527E02C9DC0013B
:1014B0002D9D900D11249C01265A3B4F7901F90175
:1014C0001182108222E030E0AE01415F5F4F68E29E
:1014D00070E0812F0E944B138F8598899827892768
:1014E0009827F701938382831682158214820E94C3
:1014F0009D13812F01C088E060960FB6F894DEBF7F
:101500000FBECDBFDF91CF911F910F91FF90EF9054
:10151000DF90CF90BF90AF909F908F900895FC0187
:101520008EE693E091838083128213821482158267
:101530001386128648EE53E060E070E044875587DA
:101540006687778724ED32E031872087978B868BFB
:10155000108E118E128E138E88E080A308958F92C4
:101560009F92AF92BF92CF92DF92EF92FF926B0168
:101570007C010E94FF084B015C01C114D104E1040D
:10158000F104F1F00E94FF08DC01CB0188199909F0
:10159000AA09BB09883E9340A105B10570F321E07B
:1015A000C21AD108E108F10888EE880E83E0981E7F
:1015B000A11CB11CC114D104E104F10419F7DDCF61
:1015C000FF90EF90DF90CF90BF90AF909F908F9063
:1015D00008952FB7F8946091A3047091A4048091AA
:1015E000A5049091A6042FBF08954F925F926F9229
:1015F0007F928F929F92AF92BF92CF92DF92EF92A3
:10160000FF920F931F93CF93DF93CDB7DEB763970E
:101610000FB6F894DEBF0FBECDBF7C015B013A016F
:10162000FB0120E080E090E06AE03191332309F192
:1016300040ED430F4A3080F4689FA001699F500D30
:101640001124CA01C097830F911D37FD9A958F3FD2
:10165000910559F350F313C03E3289F4233079F0E9
:10166000D301A20FB11D12968C932F5F80E090E002
:10167000DCCF233021F4F301858381E021C0F70121
:1016800042815381648175818091B4049091B50445
:10169000A091B604B091B704481759076A077B07B1
:1016A00009F491C10E94E90A8701085F1F4F6F701A
:1016B00077277C5FC8010E94BE04813019F080E06A
:1016C00090E0D9C18EE693E09A838983F701828105
:1016D0009381A481B5818B839C83AD83BE8345E3D5
:1016E00050E0BE016F5F7F4FC8010E940D04892B3F
:1016F00019F4C12CD12C62C10E94E90AF701778349
:10170000668342E050E0B7016A5F7F4FC8010E94E4
:10171000C30381E090E09A83898342E050E0BE01F8
:101720006F5F7F4FC8010E94C30380E091E09A83FE
:10173000898342E050E0BE016F5F7F4FC8010E9485
:10174000C3031A82198242E050E0BE016F5F7F4FEF
:10175000C8010E94C30342E050E0BE016F5F7F4FAB
:10176000C8010E94C30342E050E0BE016F5F7F4F9B
:10177000C8010E94C3034501F5018081882301F15E
:1017800064015601F60181912F01882321F08E32E8
:1017900011F06201F6CFC818D9081C141D0474F4A6
:1017A000CD8641E050E0BE01635F7F4FC8010E94DB
:1017B000C303A601B401C8010E94C3034201DCCFE8
:1017C0001D8641E050E0BE01635F7F4FC8010E946B
:1017D000C303C12CDD24D394DA82C98242E050E0F5
:1017E000BE016F5F7F4FC8010E94C303DA82C982C6
:1017F00042E050E0BE016F5F7F4FC8010E94C3030B
:10180000C8010E949805892B09F473CFE3E0AE2E3E
:10181000B12C230122E0420E511C0E94E90A3B0137
:101820004C01C8010E94670318161906A4F00E9413
:10183000E90ADC01CB0186199709A809B909893899
:101840009341A105B105D0F462E370E080E090E03F
:101850000E94AF0AE6CFF70142815381648175810E
:10186000808D918DA28DB38D481759076A077B072C
:1018700049F4848D958DC59729F409C0CC24CA9468
:10188000DC2C93C05EEFC52EDD24DA948EC0F70108
:1018900081A192A10C970CF4E9C04CE050E0BE018C
:1018A0006F5F7F4FC8010E941F038B819C81982727
:1018B000892798279A8B898BF7014681578129813F
:1018C0003A814217530709F0C2C097FFC0C08F701A
:1018D0009270892B09F0C0C06F80788476246724C9
:1018E00076246114710409F4BCC0C12CD12C8D8103
:1018F0009E81982789279827C816D90608F466C0BC
:10190000812C912C41E050E0BE016D5E7F4FC801FB
:101910000E941F034B89842F807C09F076C04423EA
:1019200031F050E060E070E0C8010E941F038B8935
:101930008111E8CF42E050E0BE01615F7F4FC801F6
:101940000E941F0342E050E0BE01635F7F4FC80169
:101950000E941F0344E050E060E070E0C8010E9474
:101960001F0342E050E0BE016F5E7F4FC8010E943E
:101970001F038F85988949895A898115914009F0FB
:101980004DC0CD84DE84DC24CD24DC2481E0C81667
:10199000D10409F043C04115544009F053C044E05C
:1019A00050E0B201C8010E941F0321E0A21AB10851
:1019B00029F0FFEFCF16DF0609F42FCFC8010E94F0
:1019C0000203C60158C08EEF9FEF55C041E050E0C2
:1019D000BE01635F7F4FC8010E941F034D854423F2
:1019E00031F050E060E070E0C8010E941F038D8577
:1019F0008111ECCF44E050E060E070E0C8010E944B
:101A00001F03FFEFCF1ADF0A72CF41E050E060E022
:101A100070E0C8010E941F031B8A89CF5427452705
:101A2000542760E070E0C8010E941F03FFEF8F1A87
:101A30009F0A6814790409F065CF96EFC92EDD245A
:101A4000DA94B3CF77EFC72EDD24DA94AECF4CEF24
:101A5000C42EDD24DA94A9CF3BEFC32EDD24DA9423
:101A6000A4CF2AEFC22EDD24DA949FCF8DEFC82EAB
:101A7000DD24DA949ACF63960FB6F894DEBF0FBEDA
:101A8000CDBFDF91CF911F910F91FF90EF90DF902D
:101A9000CF90BF90AF909F908F907F906F905F900E
:101AA0004F9008951F920F920FB60F9211242F930B
:101AB0003F938F939F93AF93BF938091A304909193
:101AC000A404A091A504B091A6043091A20423E03F
:101AD000230F2D3720F40196A11DB11D05C026E866
:101AE000230F0296A11DB11D2093A2048093A3048D
:101AF0009093A404A093A504B093A6048091A70496
:101B00009091A804A091A904B091AA040196A11DE6
:101B1000B11D8093A7049093A804A093A904B09347
:101B2000AA04BF91AF919F918F913F912F910F90F8
:101B30000FBE0F901F901895863308F08653909132
:101B40007B00282F2870977F922B90937B008770C3
:101B5000806480937C0080917A00806480937A0016
:101B600080917A0086FDFCCF8091780020917900E9
:101B700090E0922B0895CF93DF93282F30E0F90166
:101B8000EC5AFC4F8491F901E851FC4FD491F901D2
:101B9000E25DFB4FC491CC2391F081110E94240996
:101BA000EC2FF0E0EE0FFF1FE656FC4FA591B4912D
:101BB000EC91ED2381E090E021F480E002C080E030
:101BC00090E0DF91CF9108951F93CF93DF93282F5B
:101BD00030E0F901EC5AFC4F8491F901E851FC4FD7
:101BE000D491F901E25DFB4FC491CC23C1F0162FD3
:101BF00081110E942409EC2FF0E0EE0FFF1FEC543E
:101C0000FC4FA591B4919FB7F894111104C08C9129
:101C1000D095D82302C0EC91DE2BDC939FBFDF91DF
:101C2000CF911F910895CF93DF9390E0FC01E8518D
:101C3000FC4F2491FC01E25DFB4F8491882361F10C
:101C400090E0880F991FFC01E253FC4FC591D4919D
:101C5000FC01EC54FC4FA591B491611109C09FB7F0
:101C6000F8948881209582238883EC912E230BC0E1
:101C7000623061F49FB7F8948881322F30958323C6
:101C80008883EC912E2B2C939FBF06C08FB7F894BE
:101C9000E8812E2B28838FBFDF91CF9108958F92FB
:101CA0009F92AF92BF92CF92DF92EF92FF920F93EB
:101CB0001F93CF93DF93CDB7DEB7C054D1400FB69B
:101CC000F894DEBF0FBECDBF8C010E94E90AF80177
:101CD000C184D284E384F4849B01AC012C193D09B6
:101CE0004E095F0969017A0130EDC31637E0D3066A
:101CF000E104F10410F48189B4C0F80161877287AE
:101D0000838794871482138212821182108261E089
:101D100085810E94E40D6AEF70E080E090E00E940F
:101D2000AF0A61E0F80185810E94130E60E0F801BE
:101D300085810E94E40D64E170E080E090E00E9403
:101D4000AF0AF89461E0F80185810E94E40D8BE907
:101D500090E00197F1F762E0F80185810E94130E8F
:101D600083E290E00197F1F760E0C8010E946921E9
:101D7000672B682B692B21F4F801118A789442C0F3
:101D800061E0C8010E946921672B682B692BA1F3D0
:101D90009E012F5F3F4F79015E013FEBA31A3EEF9B
:101DA000B30A670160E0C8010E946921F6016083FF
:101DB00071838283938361E0C8010E946921F601E7
:101DC0006483758386839783F8E0CF0ED11CCA1491
:101DD000DB0441F7789420E030E0F70180809180C7
:101DE000A280B380448155816681778181149104FA
:101DF000A104B10429F0411551056105710521F4D3
:101E0000F801118A80E02DC0F90183E0F595E7958E
:101E10008A95E1F7E00FF11F8081880F84169506FF
:101E2000A606B70608F4816080832F5F3F4FF8E075
:101E3000EF0EF11C2832310581F6F801248130E0E3
:101E40004081818190E0840F911D4281840F911D1A
:101E50004381840F911D99272817390789F681E05E
:101E6000818BC05CDE4F0FB6F894DEBF0FBECDBFD6
:101E7000DF91CF911F910F91FF90EF90DF90CF9066
:101E8000BF90AF909F908F9008951F93CF93DF9353
:101E9000182FEB0161E00E94130E209711F460E00F
:101EA00004C0CF3FD10539F461E0812FDF91CF919C
:101EB0001F910C94E40DE12FF0E0EC5AFC4FE491FB
:101EC0008E2F90E0FC013197E231F10508F09DC0C2
:101ED0008827EC57FF4F8F4F0C94653384B580688B
:101EE00084BDC7BD97C084B5806284BDC8BD92C0A3
:101EF00080918000806880938000D0938900C09397
:101F0000880088C080918000806280938000D09398
:101F10008B00C0938A007EC080918000886080938F
:101F20008000D0938D00C0938C0074C08091B0006D
:101F300080688093B000C093B3006CC08091B00003
:101F400080628093B000C093B40064C08091900020
:101F5000806880939000D0939900C09398005AC0F5
:101F600080919000806280939000D0939B00C093FA
:101F70009A0050C080919000886080939000D09328
:101F80009D00C0939C0046C08091A0008068809313
:101F9000A0008091A0008F7B8093A000D093A90027
:101FA000C093A80037C08091A00080628093A000F9
:101FB000D093AB00C093AA002DC08091A000886090
:101FC0008093A000D093AD00C093AC0023C080915B
:101FD0002001806880932001D0932901C0932801BB
:101FE00019C080912001806280932001D0932B0141
:101FF000C0932A010FC08091200188608093200146
:10200000D0932D01C0932C0105C0C038D1050CF030
:102010004BCF45CFDF91CF911F910895DC01ED911A
:10202000FC910190F081E02D19946115710579F012
:10203000FB0101900020E9F73197AF01461B570BD8
:10204000DC01ED91FC910280F381E02D199480E098
:1020500090E008958F929F92AF92BF92EF92FF927D
:102060000F931F93CF93DF93CDB7DEB7A1970FB632
:10207000F894DEBF0FBECDBF7C01FA01CB0119A2DF
:10208000223008F42AE08E010F5D1F4F822E912C22
:10209000A12CB12CBF01A50194010E94EC30F901E3
:1020A000CA01015011096A3014F4605D01C0695C15
:1020B000D8016C93232B242B252B61F7B801C70182
:1020C0000E941510A1960FB6F894DEBF0FBECDBFCB
:1020D000DF91CF911F910F91FF90EF90BF90AF9044
:1020E0009F908F900895CF93DF931F92CDB7DEB767
:1020F0006983DC01ED91FC910280F381E02D41E0E8
:1021000050E0BE016F5F7F4F19950F90DF91CF9127
:1021100008950F931F93CF93DF93EC018B01E88118
:10212000F9810684F785E02D19954F855889E88156
:10213000F9810688F789E02D20E030E0B801CE0172
:102140001995F801E80FF91F2AE020830196DF9125
:10215000CF911F910F9108950F931F93CF93DF930A
:102160009B01EA0108811981DC01ED91FC91008C51
:10217000F18DE02D44E050E067EB73E01995888124
:102180009981049699838883DF91CF911F910F9154
:1021900008950F931F93CF93DF93EC018B01E88198
:1021A000F9810684F785E02D19956D857E858F85EB
:1021B00098890E94F231E881F9810688F789E02D3B
:1021C00020E030E0AB01B801CE011995F801E80F2D
:1021D000F91F2AE020830196DF91CF911F910F9183
:1021E00008950F931F93CF93DF939B01EA0108811A
:1021F0001981DC01ED91FC91008CF18DE02D44E022
:1022000050E06CEB73E0199588819981049699836D
:102210008883DF91CF911F910F9108950F931F93A2
:10222000F901E00FF11FDB01CD01861B970B84172D
:1022300095071CF48D918193F7CF1F910F9108950D
:10224000EF92FF920F931F93CF93DF938B01EA01DD
:10225000209751F1E0E1F7E29AE0E92EF12CCE016E
:10226000BF010E945133672B31F4CF01B7010E94A7
:102270005133FB01F4CF200F311F8AE0E82EF12CFF
:10228000C901801B910B3097A1F0CE01BF010E94C4
:102290005133605DD9016D939D01EC01CF01B70110
:1022A0000E945133FB01ECCF80E3FB01808381E08E
:1022B00090E0DF91CF911F910F91FF90EF900895E3
:1022C000CF93DF93EC0160E08E810E94E40D61E02A
:1022D0008E810E94E40D60E08E810E94E40D8BE807
:1022E00091E00197F1F7DF91CF9108950F931F933C
:1022F000CF93DF93EC010E94E90A0A811B812C81B4
:102300003D81DC01CB01801B910BA20BB30B0E8135
:102310001F812885398580179107A207B30708F424
:102320004EC060E08D850E94E40D83E090E001974F
:10233000F1F761E08D850E94E40D83E290E0019762
:10234000F1F760E08D850E94E40D8B859C859927CF
:10235000FC01E851FC4F6491FC01E25DFB4FE4910C
:10236000F0E0EE0FFF1FE656FC4F8591949100E4DC
:1023700012E42FE030E0462F0E942F2761157105EF
:102380008105910549F0DC01CB010196A11DB11D2C
:10239000BC01CD019F7003C060E070E0CB012AE377
:1023A00030E040E050E00E94CD302F87388B498BE1
:1023B0005A8B0E94E90A6A837B838C839D83DF9119
:1023C000CF911F910F9108954F925F926F927F92DC
:1023D0008F929F92AF92BF92CF92DF92EF92FF9235
:1023E0000F931F93CF93DF93CDB7DEB729970FB627
:1023F000F894DEBF0FBECDBF8C010E94E90AF80140
:10240000C280D380E480F580DC01CB018C199D096A
:10241000AE09BF09C680D780E084F1848C159D0584
:10242000AE05BF0508F4D4C07801F7E3EF0EF11C48
:10243000680123E2C20ED11CF80187A9803149F05E
:10244000B701C6010E94B608B82E882309F453C00C
:1024500002C0BCE0BB2EF80181A592A50E94320803
:10246000B701F80181A592A50E941308F80143A1C4
:1024700064E481A592A50E94DF07F80185A1882365
:10248000D1F1E7EFEB0DE33040F4F0E0EE0FFF1F8A
:10249000E650FD4F4080518004C07EEE472E72E032
:1024A000572EF80186A1882301F183A181111DC057
:1024B0000E94E90A4B015C01052C000C66087708B4
:1024C000F80181A592A50E948C078130A1F00E949D
:1024D000E90ADC01CB0184199509A609B709881519
:1024E0009905AA05BB0560F306C0B201550C880B1F
:1024F000990B0E94AF0AF80181A592A50E943208AB
:10250000882309F462C0AE014F5F5F4FB701C60177
:102510000E946908882309F458C068E0CE0101963A
:102520000E9474079985891350C02A8130E0C9013F
:10253000982F8827990F990F990F6981F8E06F9F5D
:10254000B00111249C01262B372BF80187A980317B
:10255000C9F4688570E08F81AB01481B5109CA013D
:102560009695982F8827979587950E9451336051AB
:102570007109207F53E0220F331F5A95E1F7620F54
:10258000731F01C0B901613854EE75076CF0072E56
:10259000000C880B990B0E942A3220E030E040E0CA
:1025A0005CE30E94DF3204C060E070E08EEF92ECEA
:1025B000F801658776878787908B0E94E90AF80182
:1025C000628373838483958303C060E874EEDBCFFA
:1025D00029960FB6F894DEBF0FBECDBFDF91CF9125
:1025E0001F910F91FF90EF90DF90CF90BF90AF9031
:1025F0009F908F907F906F905F904F900895209163
:10260000AE0490E0233311F40C9601C04896982F45
:10261000990F990F990F80E00895DA019091AF0416
:10262000E92FF0E0FE2FEE27E60FF71F90E0982F3E
:102630008827A901BD018E0F9F1F0C947806CF93A8
:10264000DF931F921F92CDB7DEB779836A8322E0B2
:1026500030E0AE014F5F5F4F60E170E00E940D130C
:102660000F900F90DF91CF910895CF93DF931F923A
:102670001F92CDB7DEB779836A8322E030E0AE01E6
:102680004F5F5F4F64E070E00E940D130F900F905A
:10269000DF91CF910895DA019091AF04E92FF0E036
:1026A000FE2FEE27E60FF71F90E0982F8827A9014D
:1026B000BD018E0F9F1F0C94EB05CF93DF931F92EC
:1026C000CDB7DEB79091AF04292F30E0322F22270B
:1026D000260F371F90E0982F8827498341E050E06C
:1026E000BE016F5F7F4F820F931F0E9478060F908D
:1026F000DF91CF910895CF93DF931F92CDB7DEB7CF
:102700009091AF04292F30E0322F2227260F371F58
:1027100090E0982F882741E050E0BE016F5F7F4F27
:10272000820F931F0E94EB0589810F90DF91CF915B
:10273000089563E070E00C947B1308958CBD9DBDFB
:1027400008951F93CF93DF931F921F92CDB7DEB7EB
:10275000182FCE0101960E943D1E89819A810E9408
:102760009E13812F0E9499130F900F90DF91CF91AC
:102770001F910895EF92FF920F931F93CF93DF93D2
:102780007C018091AE04833311F4D4E001C0D8E021
:1027900002E914E0C0E0F801219131918F01F701C5
:1027A000848195812817390729F0CF5FDC13F3CF97
:1027B00080E006C08C2F0E94A1138431B1F781E024
:1027C000DF91CF911F910F91FF90EF9008958F921D
:1027D0009F92BF92CF92DF92EF92FF920F931F933F
:1027E000CF93DF93CDB7DEB72A970FB6F894DEBF4D
:1027F0000FBECDBF9091AE04911102C088E092C08F
:10280000933319F028E0B22E02C094E0B92E6B0188
:10281000082FCE0101960E943D1E89819A810E9457
:102820009E139E012F5F3F4F7901490110E0812FD8
:102830000E949913F40181934F018823B9F01F5F1F
:10284000B112F5CF10E0F70191917F019D3149F070
:10285000983139F09A51923020F01F5FB112F3CFC6
:10286000CDCF60E170E0812F0E948805E12EF12C30
:10287000F701EE0FFF1FEE56FB4F1182108283EE21
:1028800093E00197F1F7402F60E070E0812F0E9404
:102890005D134FEF62E070E0812F0E945D13C11461
:1028A000D10411F0B60113C0809100029091010291
:1028B00001968115F0EC9F0710F480E090EC909366
:1028C0000102809300026091000270910102812F49
:1028D0000E94351361E070E0812F0E94880527E097
:1028E0002E9DC0012F9D900D11249C01265A3B4F17
:1028F0007901F9011182108222E030E0AE01475FD8
:102900005F4F68E270E0812F0E944B1389859A85A2
:10291000982789279827F701938382831682158247
:102920001482812F2A960FB6F894DEBF0FBECDBF5A
:10293000DF91CF911F910F91FF90EF90DF90CF909B
:10294000BF909F908F900895EF92FF921F93CF9327
:10295000DF931F921F92CDB7DEB77C01FC0164812B
:10296000758181E20E94E713182F883008F5CE01A7
:1029700001960E943D1E89819A810E949E13812F9B
:102980000E949913833189F462E070E0812F0E94E4
:102990008805F70184819581E12FF0E0EE0FFF1F9C
:1029A000EE56FB4F9183808303C0812F0E946925DF
:1029B0000F900F90DF91CF911F91FF90EF900895AE
:1029C0009F92AF92BF92CF92DF92EF92FF920F93BE
:1029D0001F93CF93DF93EC016B018091AE048111C3
:1029E00011C01B821A8288EE93E0A0E0B0E08C83D5
:1029F0009D83AE83BF8384E393E09983888388E0DB
:102A00008C8756C0833319F434E0932E02C028E03B
:102A1000922E82E9E82E84E0F82E10E098E0B92E9C
:102A2000A12CD7012D913C91F60184819581281725
:102A30003907F9F4812F0E94A113082F873111F073
:102A40008C3159F4812F0E943024892B71F40C3180
:102A500081F4812F0E9469250CC0843141F08111DD
:102A600008C0D7011D921C9204C0B12E02C0AA2436
:102A7000A3941F5FB2E0EB0EF11C9112D2CFA11014
:102A800008C0D601ED91FC910084F185E02DC601CE
:102A900019951B821A8288EE93E0A0E0B0E08C8347
:102AA0009D83AE83BF8384E393E099838883BC8650
:102AB00088EE93E09E878D87CE01DF91CF911F91A5
:102AC0000F91FF90EF90DF90CF90BF90AF909F90CD
:102AD00008958F929F92AF92BF92CF92DF92EF9222
:102AE000FF920F931F93CF93DF93CDB7DEB72F974E
:102AF0000FB6F894DEBF0FBECDBF2091AE042223E7
:102B000069F1233319F434E0E32E02C028E0E22E09
:102B10008A015B016C01BC01CE0101960E94E014A8
:102B200082E9882E84E0982EF12CF40121913191D4
:102B30004F01F601848195812817390751F48F2DB3
:102B40000E94A113873129F4A801B5018F2D0E949D
:102B50004F23F394EF10E9CFC80102C080E090E06A
:102B60002F960FB6F894DEBF0FBECDBFDF91CF9189
:102B70001F910F91FF90EF90DF90CF90BF90AF909B
:102B80009F908F900895CF92DF92EF92FF920F93D4
:102B90001F93CF93DF936C017C0187E0E80EF11C5B
:102BA000C0E0D0E0062F10E0B8010C2E02C07595F1
:102BB00067950A94E2F76170F70181917F010E94A5
:102BC000E40D2196C430D10579F7C601DF91CF918C
:102BD0001F910F91FF90EF90DF90CF900C946011B8
:102BE000CF92DF92EF92FF920F931F93CF93DF93D9
:102BF000EC01F62E642F8C810E94E40D8D818F3FB5
:102C000019F060E00E94E40D8F850F2D10E084FF25
:102C100025C06E0187E0C80ED11CE12CF12CB80153
:102C20000E2C02C0759567950A94E2F76170F60163
:102C300081916F010E94E40DFFEFEF1AFF0A88E017
:102C4000E816F10461F7CE01DF91CF911F910F914A
:102C5000FF90EF90DF90CF900C946011B80184E06A
:102C6000759567958A95E1F7CE010E94C3156F2D82
:102C7000CE01DF91CF911F910F91FF90EF90DF90E8
:102C8000CF900C94C31541E00E94F01581E090E0D4
:102C9000089540E00C94F01561E00E9449168BE322
:102CA0009FE10197F1F70895CF92DF92EF92FF92A3
:102CB0000F931F93CF93DF93EC010F851889298918
:102CC0003A898B899C89AD89BE89081719072A071B
:102CD0003B0711F4442351F18B01CB010E944C16A8
:102CE00061EC73E0C8010E942B1ECF84D888E9886C
:102CF000FA88F7FE0DC06DE2C8010E940E1044274D
:102D00005527BA014C195D096E097F092AE003C0F5
:102D10002AE0B701A601C8010E942A108F85988970
:102D2000A989BA898B8B9C8BAD8BBE8BDF91CF91A0
:102D30001F910F91FF90EF90DF90CF900895FF9239
:102D40000F931F93CF93DF93EC018B01F42E29890E
:102D50003A894B895C896D857E858F8598890E942B
:102D60007B31811102C0FF20C1F0C8010E944C16C6
:102D700068EC73E0C8010E942B1E4D855E856F854F
:102D8000788922E0C8010E9444208D859E85AF8508
:102D9000B889898B9A8BAB8BBC8BDF91CF911F91BC
:102DA0000F91FF900895CF93DF93EA01A0E0B0E088
:102DB0003AE048815981CB01840F951FFC01908135
:102DC000FA013196921779F03A9FA0013B9F500D7E
:102DD0001124892F990F990BC097DC01A40FB51FFF
:102DE000F983E883E6CFF983E883CD01DF91CF91C2
:102DF0000895CF93DF93EB01DC011D964D915C911B
:102E00001E97ED91FC910688F789E02D20E030E0D7
:102E10001995C80FD91F2AE028830196DF91CF9119
:102E2000089581E00895FC0184890895FC01848956
:102E3000882319F01286148A089581E08287848B92
:102E40000895FC0192898189992321F0882379F0E2
:102E5000128A0895662331F081110BC081E0818BC5
:102E6000848B0895882329F0118A148A08956111AA
:102E7000F5CF0895662351F0FC012585368512169D
:102E8000130624F4215031093687258708956623D7
:102E900051F0FC01258536852F3F310524F42F5F45
:102EA0003F4F368725870895FC01868D8095881FC2
:102EB0008827881F0895FC01258D368D37FF03C0B4
:102EC00081E0828709C02230310531F412868FEF0C
:102ED0009FEF968F858F08952F5F3F4F368F258FF9
:102EE00008950F931F93CF93DF93EC018B01E8813B
:102EF000F9810684F785E02D19954D855E85E88179
:102F0000F9810688F789E02D20E030E0B801CE0194
:102F10001995F801E80FF91F2AE020830196DF9147
:102F2000CF911F910F9108950F931F93CF93DF932C
:102F30009B01EA0108811981DC01ED91FC91008C73
:102F4000F18DE02D44E050E06FEC73E0199588813D
:102F50009981049699838883DF91CF911F910F9176
:102F600008950895FC01768765870895DC01ED9149
:102F7000FC91068CF78DE02D199591E08927089535
:102F8000862F089581E08627089521E0FC0184853D
:102F9000883008F020E0822F089580E00895089599
:102FA000089580E00895089580E090E008950F93DB
:102FB0001F93CF93DF93EC010E94E90A0A811B81E2
:102FC0002C813D81DC01CB01801B910BA20BB30B4B
:102FD0000E811F812885398580179107A207B307C5
:102FE00030F18989811103C09A89992331F09B8935
:102FF000911103C081E08B8B06C09A89992331F02F
:103000008B89882371F06D857E8508C0811109C088
:103010008B89882331F01B8A60E070E08B850E94E9
:10302000450F0E94E90A6A837B838C839D83DF912D
:10303000CF911F910F910895CF92DF92EF92FF925F
:103040000F931F93CF93DF93EC018F8D8823E1F0D3
:1030500088A18823C9F08E01055F1F4F7E0181E1A1
:10306000E80EF11CCC24CA94D12CF8010E5F1F4F3E
:1030700086819781B601681B790B80810E94450F7C
:103080000E151F0591F718A2DF91CF911F910F9197
:10309000FF90EF90DF90CF9008956623E9F0DC0178
:1030A0005D96ED91FC915E97EE0FFF1FE80FF91F03
:1030B00021893289121613067CF421503109328B92
:1030C000218B5F968C91882339F06FEF70E0621B43
:1030D000730B83850C94450F08956623E9F0DC019A
:1030E0005D96ED91FC915E97EE0FFF1FE80FF91FC3
:1030F000218932892F3F31057CF42F5F3F4F328B7E
:10310000218B5F968C91882339F06FEF70E0621B02
:10311000730B83850C94450F08950F931F93CF93E2
:10312000DF93EC012F8538898D859E852817390717
:1031300011F44423E9F08B01CB010E944C1664ED9D
:1031400073E0C8010E942B1E6D857E85C8010E9418
:1031500033218C89882341F0C8010E942D1E6DED1A
:1031600073E0C8010E942B1E8D859E85988B8F87EA
:10317000DF91CF911F910F9108950F931F93CF93DC
:10318000DF93EC012D853E858F85988928173907B7
:1031900011F4442391F08B01CB010E944C166D85F4
:1031A0007E85C8010E9433216DEE73E0C8010E9444
:1031B0002B1E8D859E85988B8F87DF91CF911F91D8
:1031C0000F910895EF92FF920F931F93CF93DF9388
:1031D00000D01F92CDB7DEB77C018B01DC015D967C
:1031E000ED91FC915E97F7FF3AC0411105C09096B2
:1031F0008C91882309F47AC0C8010E944C1662EFB2
:1032000073E0C8010E942B1EF70161897289C80111
:103210000E94332165EF73E0C8010E942B1ED70185
:1032200053966D917C915497C8010E943321C80137
:103230000E942D1E69EF73E0C8010E942B1EF7014A
:1032400065897689C8010F900F900F900F90DF91DC
:10325000CF911F910F91FF90EF900C943321EE0FBF
:10326000FF1FE80FF91F2789308D81899289281760
:10327000390711F44423D1F18091FC039091FD03AF
:10328000A091FE03B091FF0389839A83AB83BC8333
:10329000C8010E944C16D7015D96ED91FC915E9796
:1032A000EC0FFD1F6181C8010E940E106AEF73E0F0
:1032B000C8010E942B1ED7015D96ED91FC915E978F
:1032C000EE0FFF1FEE0DFF1D61897289C8010E947C
:1032D0003321D7015D96ED91FC915E97EE0FFF1FB4
:1032E000EE0DFF1D81899289908F878B0F900F9033
:1032F0000F900F90DF91CF911F910F91FF90EF9062
:103300000895EF92FF920F931F93CF93DF93FC01E9
:103310002285211133C0662389F1878DEF012B9619
:103320008F010F5E1F4F8823B1F0178E8881229680
:103330006FEF70E00E94450FC017D107B9F764EF37
:1033400071E080E090E0DF91CF911F910F91FF90AD
:10335000EF900C94AF0A81E0878FEE24EA94F12C71
:10336000FE01229686819781B701681B790B8081C7
:103370000E94450FC017D10799F7E1CFDF91CF9198
:103380001F910F91FF90EF900895FC01228521116C
:103390002FC0662369F18589882321F0158A60E0B2
:1033A00070E01DC081E0858B8785908923893489F1
:1033B00028173907BCF020E034E0281B390B4FEF09
:1033C000429FC001439F900D112497FF02C081507E
:1033D0009C4F792F770F770B692F659565958585BC
:1033E0000E94450F64EF71E080E090E00C94AF0A1A
:1033F0000895CF92DF92EF92FF92CF93DF93EC018B
:103400000E94E90ACA80DB80EC80FD80DC01CB01F0
:103410008C199D09AE09BF09CE80DF80E884F9844C
:103420008C159D05AE05BF0508F441C0CE0141963F
:103430000E944F0E882369F18F898B3019F148F172
:103440008551823030F5698970E080E090E00E941B
:10345000283220E030E040E853E40E94DF326B0184
:103460007C016A8970E080E090E00E942A32A70126
:1034700096010E940F312DEC3CEC4CEC5DE30E9478
:10348000DF320BC0698970E080E090E00E94283252
:1034900004C060E070E080EC9FE70E94F2317E871C
:1034A0006D870E94E90A6A837B838C839D83DF9109
:1034B000CF91FF90EF90DF90CF900895CF92DF9261
:1034C000EF92FF920F931F93CF93DF93EC010E9433
:1034D000E90A0A811B812C813D81DC01CB01801B23
:1034E000910BA20BB30B0E811F81288539858017A4
:1034F0009107A207B30708F448C08B850E949C0D72
:10350000BC01988B8F878D89882351F10B891C8989
:10351000061717072CF1072E000C880B990B0E9439
:103520002A326B017C01B801110F880B990B0E94A4
:103530002A329B01AC01C701B6010E94803120E014
:1035400030E04FE753E40E94DF329B01AC0160E0C2
:1035500070E08FE793E40E940E310E94F2310CC0BC
:1035600089899A896817790751F02B893C8928172E
:1035700039072CF060E070E08D850E94450F0E94B5
:10358000E90A6A837B838C839D83DF91CF911F91AE
:103590000F91FF90EF90DF90CF9008950F931F93BE
:1035A000CF93DF93EC0129893A898F859889281771
:1035B000390711F4442361F18B01CB010E944C16B1
:1035C00060E074E0C8010E942B1E6F857889072E89
:1035D000000C880B990B0E942A3220E030E040E872
:1035E0005AE30E94DF3220E030E048EC52E40E94CF
:1035F000DF32AB01BC0122E0C8010E94442068E038
:1036000074E0C8010E942B1E8F8598899A8B898B44
:10361000DF91CF911F910F9108950F931F939B01FD
:1036200000E010E044E050E06AE074E00E940E1117
:1036300084E090E01F910F910895AF92BF92CF92D6
:10364000DF92EF92FF920F931F93CF93DF931F921E
:103650001F92CDB7DEB77C015B016A013A832983F3
:10366000022F132FA801B6018FE094E00E942021C1
:103670008823D1F00C5F1F4F1A8309832AE0AE0123
:103680004F5F5F4FB601C7010E94D3168F3F910570
:1036900009F0E0F4F7019687858783898823B1F0E4
:1036A00081E0F701828B12C0A801B60183E194E0AA
:1036B0000E9420218111F4CFA801B60187E194E096
:1036C0000E942021882311F0F701128A00E010E007
:1036D000950143E050E06BE174E0C7010E940E11D8
:1036E00083E090E00F900F90DF91CF911F910F91A9
:1036F000FF90EF90DF90CF90BF90AF9008950F9321
:103700001F93CF93DF939B01EA010881198144E065
:1037100050E06FE174E00E940E1188819981049657
:1037200099838883DF91CF911F910F910895AF9274
:10373000BF92CF92DF92EF92FF920F931F93CF939E
:10374000DF931F921F92CDB7DEB77C015B016A0148
:103750003A832983022F132FA801B6018FE094E04A
:103760000E9420218823C9F10C5F1F4F1A8309830F
:1037700020E2AE014F5F5F4FB601C7010E94D31632
:103780008F3F910509F028F4D70152969C938E93B0
:10379000519720E2AE014F5F5F4FB601C7010E9413
:1037A000D3168F3F910509F018F4F701948B838BA2
:1037B0002AE0AE014F5F5F4FB601C7010E94D316EA
:1037C0008F3F910509F028F4D70156969C938E936C
:1037D000559781E0F70180A326C0A801B60183E1D7
:1037E00094E00E942021882349F0D7015F968C91B4
:1037F0005F97811118C0ED91FC910FC0A801B6012F
:1038000087E194E00E942021882369F0F701878DE9
:10381000882349F00190F081E02D0480F581E02DAE
:1038200061E0C701199500E010E0950143E050E028
:103830006BE174E0C7010E940E1183E090E00F90ED
:103840000F90DF91CF911F910F91FF90EF90DF903C
:10385000CF90BF90AF900895CF92DF92EF92FF92FA
:103860000F931F93CF93DF93EC017B0149895A8912
:10387000E881F9810688F789E02D20E030E019958C
:103880009C012F5F3F4FF701E80FF91F1AE01083EB
:103890004B895C89E881F9810688F789E02DB701B9
:1038A000CE0119959C012F5F3F4FF701E80FF91FDB
:1038B00010834D895E89E881F9810688F789E02DBA
:1038C000B701CE0119956C010196F701EC0DFD1DB4
:1038D00010832F8D8C01222361F0970142E050E08C
:1038E00064E274E0CE010E940E1183E0C80ED11C88
:1038F0000BC0970143E050E067E274E0CE010E9404
:103900000E1184E0C80ED11CF701EC0DFD1D8AE0FC
:103910008083C6010196DF91CF911F910F91FF9097
:10392000EF90DF90CF9008950F931F93CF93DF9385
:103930009B01EA010881198144E050E06BE274E0E8
:103940000E940E1188819981049699838883DF9162
:10395000CF911F910F910895CF92DF92EF92FF9236
:103960000F931F93CF93DF93EC016B018A017901D1
:10397000A901B80183E194E00E942021882321F06D
:103980008D89811114C00BC0A701B80187E194E0B3
:103990000E942021882359F08D89882341F0E881F5
:1039A000F9810480F581E02D61E0CE01199500E0F8
:1039B00010E0960143E050E06BE174E0CE010E941C
:1039C0000E1183E090E0DF91CF911F910F91FF9056
:1039D000EF90DF90CF900895CF92DF92EF92FF9219
:1039E0000F931F93CF93DF936C017B01DC011F9634
:1039F0004D915C915097ED91FC910688F789E02DEF
:103A000020E030E01995EC018C010F5F1F4FF701AA
:103A1000E80FF91F8AE08083F601858997018823E2
:103A200049F042E050E064E274E0C6010E940E11E9
:103A3000239608C043E050E067E274E0C6010E94AC
:103A40000E112496F701EC0FFD1F8AE08083CE0152
:103A50000196DF91CF911F910F91FF90EF90DF9032
:103A6000CF9008950F931F93CF93DF939B01EA01AB
:103A70000881198144E050E060E374E00E940E1177
:103A800088819981049699838883DF91CF911F91D2
:103A90000F910895CF93DF93EC0188810E94BB0DB5
:103AA0000197F1F48A81882369F06AE070E080E090
:103AB00090E00E94AF0A88810E94BB0D892BC1F45F
:103AC0001A8216C06EE170E080E090E00E94AF0ABA
:103AD00088810E94BB0D019759F481E08A8308C058
:103AE00088810E94BB0D892B19F48A818111E8CF4E
:103AF0008A81DF91CF910895CF93DF93823028F0B0
:103B00009091FC0498609093FC04809300051092BF
:103B1000010580E48093020580E18093030580E540
:103B20008093040561E08091F1040E94130E80915E
:103B3000F2048F3F19F061E00E94130E61E0809162
:103B4000F3040E94130ECDEED4E09E012D5E3440AE
:103B50008091FC0484FD03C084E090E002C088E012
:103B600090E02196281739072CF461E08E810E949D
:103B7000130EEBCF8BE39DE00197F1F760E08091AE
:103B8000F1040E94E40D60E08091F3040E94E40DD2
:103B90008091F2048F3F19F060E00E94E40D609183
:103BA000FC0464FD20C063E08DEE94E00E94C31528
:103BB000CBE4D6E4CE010197F1F763E08DEE94E01B
:103BC0000E94C3152197F1F763E08DEE94E00E9407
:103BD000C31583E592E00197F1F762E08DEE94E082
:103BE0000E94C3151BC060628DEE94E00E944916CE
:103BF0008BE496E40197F1F76091FC0460628DEE2E
:103C000094E00E94491683E592E00197F1F76091F4
:103C1000FC0460628DEE94E00E9449166091FC0401
:103C200060628DEE94E00E94491684E08093FD046A
:103C30006CE08DEE94E00E9449168DEE94E00E94B7
:103C40004C1682E08093FE0466E08DEE94E0DF91F6
:103C5000CF910C9449160C941510FC019389923065
:103C600010F4915001C091E0DF01A90FB11D5496ED
:103C70006C916068CF010C94491620E5FC0120830B
:103C800021E021830895CF92DF92EF92FF920F936C
:103C90001F93CF93DF93CDB7DEB7C654D1090FB6CC
:103CA000F894DEBF0FBECDBFFC0182819381A48159
:103CB000B58123968CAF9DAFAEAFBFAF239721E008
:103CC00023962FAF239723964CAD5DAD6EAD7FADA0
:103CD00023974BAB5CAB6DAB7EAB89AF9AAFABAF11
:103CE000BCAF8DA79EA7AFA7B8AB28AB4DA55EA56F
:103CF0006FA578A94FA358A769A77AA72EAB4BA9A0
:103D00005CA96DA97EA949A35AA36BA37CA38B8F41
:103D10009C8FAD8FBE8F4EE653E05C8B4B8B3FEF9D
:103D20003D8B3E8B3F8B188E5E874D872AA7CFA099
:103D3000D8A4E9A4FAA4CF86D88AE98AFA8A2CA35F
:103D400009A11AA12BA13CA109871A872B873C87BF
:103D50005A8349838B839C83AD83BE838091B10456
:103D600081110DC160E372E080E090E00E94AF0A33
:103D70001FB7F8948091B004811127C0E3E6F4E006
:103D80008491EDE1F4E09491E82FF0E0EE0FFF1F55
:103D9000E253FC4FA591B491EC91E92321F461E049
:103DA00085E30E94E40D61E085E30E94130E8CB56B
:103DB00080618CBD8CB580648CBD61E084E30E9421
:103DC000130E61E083E30E94130E8091B0048F5FB5
:103DD0008093B0041FBFE8E3F4E0E491F0E0EE0F5D
:103DE000FF1FEC54FC4F859194919093AD04809308
:103DF000AC04E2EFF3E0E491E093AB0461E08AE02D
:103E00000E94130E0E94E105CE018D5B9F4F0E9420
:103E10003D1E25968EAD9FAD25970E949E1384E38F
:103E20008093AE040E945B07882319F188E00E940A
:103E300048070E9435078830E1F480E10E94480776
:103E40000E9435078031A9F480E00E9448070E9453
:103E5000350781110EC041E050E0BE016D5B7F4F20
:103E60008FE190E00E94EB0524968FAD249783307C
:103E7000A1F187E38093AE040E945B07882309F4D5
:103E800040C088E00E9448070E9435078830C9F585
:103E900080E10E9448070E943507182F803189F57C
:103EA00080E00E9448070E94350781112AC041E046
:103EB00050E0BE016D5B7F4F89E390E00E94EB050F
:103EC00024968FAD24978430E1F41093AF040E94C0
:103ED0009D1381E08093B10452C080E48093AF04CD
:103EE00010E042E06EE170E0812F0E945D1342E03D
:103EF0006FE170E0812F0E945D131F5F183089F71A
:103F0000E6CF83E38093AE040E945B07882391F1A0
:103F100080E10E9448070E943507803159F582E10F
:103F20000E9448070E943507823121F580E00E94F7
:103F300048070E94350781111DC084E08093AF04BB
:103F400015E527961FAF279741E050E0BE016A5B59
:103F50007F4F8BE190E00E94780626961FAF269750
:103F600041E050E0BE016B5B7F4F8AE190E00E9430
:103F70007806ADCF1092AE040E949D133EC0CE01D4
:103F80008D5B9F4F0E943D1E25968EAD9FAD259760
:103F90000E949E1346E050E062E072E089E090E00B
:103FA0000E94780644E050E0BE016D5F7F4F8FE0D5
:103FB00090E00E94780644E050E0BE01615F7F4FD0
:103FC00081E090E00E94780644E050E0BE016B5E24
:103FD0007F4F85E090E00E9478060E949D1381E06B
:103FE0008C8789859A85AB85BC858093BA0490932C
:103FF000BB04A093BC04B093BD04CA5BDF4F0FB6F3
:10400000F894DEBF0FBECDBFDF91CF911F910F910E
:10401000FF90EF90DF90CF90089577FD07C020913B
:10402000BE043091BF04621773071CF18091C8046D
:104030009091C9040E944C1665E374E08091C80415
:104040009091C9040E942B1E8091C8049091C904CC
:104050000E942D1E64E474E08091C8049091C9040C
:104060000E942B1E60E177E280E090E00E94AF0AA0
:10407000F9CF660F771FE091E504F091E604E60FB3
:10408000F71F9183808308957F928F929F92AF92C2
:10409000BF92CF92DF92EF92FF920F931F93CF9335
:1040A000DF938C016A017B01722E9A01AB01C7017B
:1040B000B6010E944C33882319F06EE474E027C0E7
:1040C00046015701E894B7F82FEF3FEF4FE75FE75E
:1040D000C501B4010E944C3381110DC02FEF3FEF99
:1040E0004FE75FE7C501B4010E947B3118161CF44D
:1040F00062E574E00CC02FEF3FEF4FE75FE4C701CC
:10410000B6010E94DA32181694F466E574E0C8012C
:10411000DF91CF911F910F91FF90EF90DF90CF90A3
:10412000BF90AF909F908F907F900C9415102FEFC1
:104130003FEF4FE75FECC701B6010E947B3187FD7F
:10414000E4CF20E030E0A901C701B6010E947B3135
:1041500087FF0AC06DE2C8010E940E10EC01F7FA59
:10416000F094F7F8F09402C0C0E0D0E0B12C60E029
:1041700070E080E09FE37B1441F020E030E040E21B
:1041800051E40E948031B394F6CFA70196010E94BA
:104190000F316B017C010E94F9314B015C012AE077
:1041A000AB01BC01C8010E942A10C80FD91F77209B
:1041B000C1F1C501B4010E9428329B01AC01C701C5
:1041C000B6010E940E316B017C016EE2C8010E94B3
:1041D0000E10C80FD91F20E030E040E251E4C701C3
:1041E000B6010E94DF324B015C010E94F9316B0184
:1041F000E12CF12C2AE0B701A601C8010E942A1087
:10420000C80FD91FC701B6010E9428329B01AC011B
:10421000C501B4010E940E316B017C017A947110CA
:10422000DACFCE01DF91CF911F910F91FF90EF90E8
:10423000DF90CF90BF90AF909F908F907F90089528
:10424000FB01E40FF51F9C012D5F3F4FDC015D91E9
:10425000CD014191541305C0A217B307B9F781E00E
:10426000089580E00895CF92DF92EF92FF920F932E
:104270001F93CF93DF936B01770FEE08FF08F7FED4
:104280001BC0EC016DE20E940E108C0144275527E3
:10429000BA014C195D096E097F092AE0CE010E941E
:1042A0002A10800F911FDF91CF911F910F91FF90E6
:1042B000EF90DF90CF9008952AE0B701A601DF913B
:1042C000CF911F910F91FF90EF90DF90CF900C94C2
:1042D0002A108F929F92AF92BF92CF92DF92EF926D
:1042E000FF92CF93DC011796CC911797662311F0BC
:1042F0009C2F01C090E018962C91189730E0220F67
:10430000331F26563C4F40E050E0BA01F901E590DA
:10431000F490F70180818C2389131AC04A015B0154
:10432000FFEF8F1A9F0AAF0ABF0A1D96CD90DD904E
:10433000ED90FC9050974C155D056E057F0518F4C7
:10434000B501A401E3CF30E020E080E090E003C0BD
:10435000342F252FCB01632F722FCF91FF90EF9039
:10436000DF90CF90BF90AF909F908F900895CF93A4
:10437000DF931F92CDB7DEB76983DC01ED91FC912D
:104380000280F381E02D41E050E0BE016F5F7F4F7E
:1043900019950F90DF91CF910895FC018485958543
:1043A0000895FC018489958908952EE633E0FC0187
:1043B00031832083FB014089518962897389FC0123
:1043C00042835383648375830895DC01ED91FC91EE
:1043D000048CF58DE02D199480E00895CF93DF9340
:1043E000EC018C858830C8F40E94A113843181F0DF
:1043F000882371F0883161F08C3161F4E881F981B2
:104400000084F185E02DCE01199521E0892B19F466
:1044100020E001C021E0822F01C080E0DF91CF9138
:104420000895FF920F931F93CF93DF931F921F92D4
:10443000CDB7DEB7F82E22E030E0AE014F5F5F4F20
:1044400066E270E00E944B1309811A811027012750
:10445000102722E030E0AE014F5F5F4F66E270E070
:104460008F2D0E944B1389819A819827892798273D
:104470000817190711F08C01ECCFC8010F900F90AD
:10448000DF91CF911F910F91FF9008957F928F92AE
:104490009F92AF92BF92CF92DF92EF92FF920F93D3
:1044A0001F93CF93DF931F921F92CDB7DEB7782E65
:1044B0008B014A01590122E030E0AE014F5F5F4FAE
:1044C00064E270E00E944B13E980FA80FE24EF243E
:1044D000FE24E00EF11E970137704091AE04072DC7
:1044E00010E0C801433311F4089601C04096982F9C
:1044F0008827990F990F990F820F931F473319F44B
:10450000A501B40120C0A9014A0D5B1D41305840EE
:10451000B8F360E078E06B01C21AD30AA601B401D7
:104520000E947806A5014C195D09B4016C0D7D1D32
:104530008091AE04833339F5085F1F4F902F990F98
:10454000990F990F80E00E947806EA0CFB1CF98213
:10455000EA8222E030E0AE014F5F5F4F64E270E03C
:10456000872D0E940D130F900F90DF91CF911F9117
:104570000F91FF90EF90DF90CF90BF90AF909F9002
:104580008F907F900895005F1F4FD8CFEF92FF92DA
:104590001F93CF93DF931F921F92CDB7DEB7182FD3
:1045A00022E030E0AE014F5F5F4F60E270E00E94BA
:1045B0004B13E980FA80FE24EF24FE2422E030E051
:1045C000AE014F5F5F4F60E270E0812F0E944B139E
:1045D00089819A81982789279827E816F90611F08A
:1045E0007C01ECCF87E0189FF0011124E65AFB4FC5
:1045F000F582E482C7010F900F90DF91CF911F9158
:10460000FF90EF900895FF920F931F93CF93DF9346
:104610001F921F92CDB7DEB7F82ECE0101960E94F1
:104620003D1E89819A810E949E138F2D0E94C62271
:104630008C018F2D0E949913F82E0E949D1387E103
:10464000F81631F08CE1F81619F080E090E001C026
:10465000C8010F900F90DF91CF911F910F91FF90A4
:104660000895CF93DF93EC018C85883060F40E942D
:10467000A113873111F08C3131F48C850E94032312
:104680008115984088F3DF91CF910895FC018485CE
:10469000883010F40C94032380E090E00895AF92EA
:1046A000BF92CF92DF92EF92FF920F931F93CF931F
:1046B000DF931F921F92CDB7DEB7F82E6B018A01F0
:1046C0004130584010F000E018E0CE0101960E9401
:1046D0003D1E89819A810E949E138F2D0E94C622C1
:1046E0005C018F2D0E949913E82E0E949D1387E193
:1046F000E81619F08CE1E81204C0A016B10628F300
:1047000002C000E010E0CE0101960E943D1E8981AA
:104710009A810E949E139801A60160E070E08F2D9F
:104720000E94462260E270E08F2D0E94880562E0C0
:1047300070E08F2D0E947B1384FD15C08F2D0E9489
:104740009913811105C00E949D1380E090E014C070
:104750000E949D13CE0101960E943D1E89819A817F
:104760000E949E13E4CF40E162E070E08F2D0E9432
:104770005D130E949D13C8010F900F90DF91CF91A0
:104780001F910F91FF90EF90DF90CF90BF90AF906F
:1047900008950F931F93CF93DF93FC018485883096
:1047A00068F4C52FD42F8F010E944F23009749F43E
:1047B00021E030E0F8013383228305C080E090E0FF
:1047C00002C08D2F9C2FDF91CF911F910F910895E3
:1047D0001F93CF93DF931F921F92CDB7DEB7182F91
:1047E000CE0101960E943D1E89819A810E949E13EE
:1047F000812F0E94FF1227E0129FF0011124E65A38
:10480000FB4F22813381377041E050E0BE016F5F82
:104810007F4F820F931F0E94EB050E949D13898199
:104820000F900F90DF91CF911F910895CF93DF9359
:10483000FC012485283018F08FEF9FEF0EC0EC01AB
:104840000190F081E02D0084F185E02D1995892BF0
:1048500099F38C850E94E82390E0DF91CF91089531
:10486000EF92FF920F931F93CF93DF931F921F92AC
:10487000CDB7DEB7482F87E0489F90011124F9019A
:10488000E65AFB4F7F01808191810097B9F4142F84
:10489000CE0101960E943D1E89819A810E949E133D
:1048A000812F0E9411228C010E949D13F7018681A5
:1048B0009801281B3109C901318320830F900F9083
:1048C000DF91CF911F910F91FF90EF900895FC0120
:1048D0008485883010F40C94302480E090E00895B2
:1048E0004F925F927F928F929F92AF92BF92CF92A0
:1048F000DF92EF92FF920F931F93CF93DF931F925C
:104900001F92CDB7DEB7782E6B014A01A82EB12CCD
:1049100027E0829FC0011124AC01465A5B4F7A0107
:10492000FA0100811181CE0101960E943D1E89810C
:104930009A810E949E130815190554F4872D0E9430
:104940001122F70126818C01021B110911830083BA
:104950000115110599F4872D0E949913843109F4EA
:1049600080C0882309F47DC001E010E08C3111F48F
:1049700000E010E011950195110973C080169106B1
:104980000CF4840187E08A9DF0018B9DF00D1124C9
:10499000E65AFB4FE280F380C114D10459F127019C
:1049A000F7E05F22872D0E94FF12840D951D209154
:1049B000AE04273319F4A801B6011AC09801240DDA
:1049C000351D21303840B8F320E038E04901841823
:1049D0009508A401B6010E94EB052601480C591C5C
:1049E0006801C818D908872D0E94FF12A601B201DC
:1049F0000E94EB05E00EF11E87E08A9DF0018B9D81
:104A0000F00D1124E65AFB4FF382E28280819181FE
:104A1000801B910B918380832681A801420F511D39
:104A20004A3F510510F4892BD9F487E08A9DF001A3
:104A30008B9DF00D1124E65AFB4F1682F982EA8213
:104A400022E030E0AE014F5F5F4F68E270E0872DFB
:104A50000E940D1360E470E0872D0E94880501C05C
:104A600046830E949D13C8010F900F90DF91CF9154
:104A70001F910F91FF90EF90DF90CF90BF90AF907C
:104A80009F908F907F905F904F900895CF93DF938A
:104A90001F92CDB7DEB741E050E0BE016F5F7F4FA0
:104AA000FC0184850E947024181619061CF4898163
:104AB00090E002C08FEF9FEF0F90DF91CF910895AC
:104AC000FC018485883010F40C94702480E090E020
:104AD00008951F93CF93DF931F921F92CDB7DEB738
:104AE000182FCE0101960E943D1E89819A810E9455
:104AF0009E1368E070E0812F0E9488050E949D133C
:104B00000F900F90DF91CF911F910895CF92DF9278
:104B1000EF92FF920F931F93CF93DF93CDB7DEB742
:104B2000AF970FB6F894DEBF0FBECDBF8C016B01FF
:104B30007A01CE0101960E948F0A8EE693E09BA730
:104B40008AA71CA61DA61EA61FA6D8011C968C917E
:104B5000883060F40E94A113882321F0F801848535
:104B60000E94692588E0D8011C968C938091BA0434
:104B70009091BB04A091BC04B091BD048EA39FA3EF
:104B8000A8A7B9A78B839C83AD83BE8318861F8299
:104B9000AE01465D5F4FB601CE0101960E94F50A57
:104BA0000097C1F0D801ED91FC910684F785E02DC6
:104BB0008EE693E09DA38CA38CA59DA5AEA5BFA575
:104BC0008EA39FA3A8A7B9A7A701BE016C5D7F4FC5
:104BD000C8011995AF960FB6F894DEBF0FBECDBFD2
:104BE000DF91CF911F910F91FF90EF90DF90CF90C9
:104BF00008951F93CF93DF931F921F92CDB7DEB717
:104C0000182FCE0101960E943D1E89819A810E9433
:104C10009E1360E170E0812F0E9488050E949D1321
:104C20000F900F90DF91CF911F910895CF92DF9257
:104C3000EF92FF92CF93DF93EC018C85883038F5AB
:104C40000E9469250E94E90A6B017C018C850E9403
:104C5000A1138823D1F061E070E080E090E00E9431
:104C6000AF0A0E94E90AAB01BC014C195D096E094B
:104C70007F098D859E85A0E0B0E0481759076A0737
:104C80007B0720F38C850E94F92588E08C87DF91D3
:104C9000CF91FF90EF90DF90CF900895AF92BF92A9
:104CA000CF92DF92EF92FF920F931F93CF93DF93F8
:104CB0001F921F92CDB7DEB78C016B015A01FC0128
:104CC0008485883058F40E94A113882321F0F801CC
:104CD00084850E94692588E0F8018487F601828135
:104CE0009381A481B5810097A105B10509F45DC048
:104CF0008F3F9F4FAF4FBF4F09F457C060E070E048
:104D000081E20E94E713F82EF8018487F7E0F81794
:104D100008F44BC0CE0101960E943D1E89819A8104
:104D20000E949E13A6014E5F5F4F24E030E06CE0CE
:104D300070E08F2D0E940D13B5018F2D0E941F135F
:104D400064E070E08F2D0E9488050E949D130E94F0
:104D5000E90A6B017C01F80184850E94A113873167
:104D600039F18C3129F1882301F10E94E90AAB0164
:104D7000BC014C195D096E097F09F801858596858E
:104D8000A0E0B0E084179507A607B70738F061E008
:104D900070E080E090E00E94AF0ADDCFF8018485EA
:104DA0000E94F92588E0F801848780E090E002C045
:104DB00081E090E00F900F90DF91CF911F910F91C4
:104DC000FF90EF90DF90CF90BF90AF9008958F92BB
:104DD0009F92AF92BF92CF92DF92EF92FF920F938A
:104DE0001F93CF93DF937C018B016C0182E0C80E8F
:104DF000D11C4701E5E08E0E911CC0E0D0E0F60129
:104E000041916F0150E060E070E02AE0C8010E942B
:104E10002A105C016EE2C8010E940E108A0D9B1DD3
:104E2000C80FD91FC814D90451F7F701458150E0C4
:104E300060E070E02AE0C8010E942A108C0F9D1FDC
:104E4000DF91CF911F910F91FF90EF90DF90CF9066
:104E5000BF90AF909F908F9008950E94A234CF9200
:104E6000DF92EF92FF920F931F93E82FF92F05C067
:104E7000015011092109310961F19081962394179C
:104E8000B9F305C0015011092109310911F19081CF
:104E900096239413F7CFC12CD12CE12CF12C0AC00E
:104EA0008FEFC81AD80AE80AF80A0C151D052E0556
:104EB0003F0579F080818623841791F36C2D7D2D39
:104EC0008E2D9F2D1F910F91FF90EF90DF90CF902F
:104ED000089560E070E080E090E01F910F91FF90F6
:104EE000EF90DF90CF900895CF93DF93CDB7DEB7EB
:104EF000CE5CD1090FB6F894DEBF0FBECDBF78945B
:104F000084B5826084BD84B5816084BD85B58260CE
:104F100085BD85B5816085BD80916E00816080937F
:104F20006E001092810080918100826080938100E8
:104F300080918100816080938100809180008160F8
:104F4000809380008091B10084608093B100809153
:104F5000B00081608093B000809191008260809366
:104F600091008091910081608093910080919000E8
:104F70008160809390008091A10082608093A10065
:104F80008091A10081608093A1008091A000816048
:104F90008093A00080912101826080932101809103
:104FA00021018160809321018091200181608093A3
:104FB000200180917A00846080937A0080917A0049
:104FC000826080937A0080917A00816080937A0079
:104FD00080917A00806880937A001092C1007E01EF
:104FE00025E6E20EF11C88E0EEE0F2E0D701019048
:104FF0000D928A95E1F786E0E6E1F2E0DE01A75343
:10500000BF4F01900D928A95E1F787E190E00E94F1
:1050100081338C0180E292E0D80111969C938E93AB
:105020008EE190E01C969C938E931B978FE190E00D
:105030001E969C938E931D97F8011786108A118AED
:10504000128A8FEF9FEFDC01838B948BA58BB68B3D
:105050000E94E90AD80112966D937D938D939C93DB
:10506000159788EE93E0A0E0B0E0F801868397837F
:10507000A087B187128661E085850E94130E60E0EB
:10508000D8011B968C910E94130E60E070E0C8015D
:105090000E940D2081E290E00E9481338C018EE31A
:1050A00092E0F801918380838FEF9FEF968F858F39
:1050B00081E0878F10A2CE0187539F4F5C0168016A
:1050C0009BE0C90ED11C1801A1E12A0E311C40E859
:1050D000842E912C66246A94762CF501808191812E
:1050E000F2E0AF0EB11C2601D6018C9311969C9371
:1050F000119717969C928E9216971D967C926E929F
:105100001C9761E00E94130EB2E0CB0ED11CF2019D
:105110006681778180810E94450F2C143D04E9F659
:105120000E94E90AD80112966D937D938D939C930A
:10513000159784EF91E0A0E0B0E0F80186839783B3
:10514000A087B187128661E070E0C8010E940D203F
:105150008FE390E00E9481338C018AE592E0D801D0
:1051600011969C938E9384E290E01C969C938E9370
:105170001B97F801158616861786108A6801F5E1D7
:10518000CF0ED11C60E00E94130EECE0F4E0E4913D
:10519000D8015596EC93E2E5F4E0E491F0E0EE0FEF
:1051A000FF1FE656FC4F85919491F801978B868BF3
:1051B00010A212A211A2B096C80148961292E81746
:1051C000F907E1F75801F3E2AF0EB11CD8019A9646
:1051D000DC92CE92999797961C92979798961C92EC
:1051E000989793961C92939789E094968C939497B2
:1051F00081E095968C93959796968C939697D696F4
:105200001C921E92D5970E94E90AF801628373836B
:105210008483958380ED97E0A0E0B0E08683978358
:10522000A087B1871286D701F796C801CF962D9136
:105230002193E817F907D9F7D8019996ED91FC91D8
:105240009A97138615861486DF011B9633961E9255
:10525000EA17FB07E1F7F80117A210A655245394AB
:10526000D8019996CD90DC909A97F60185858111A9
:105270006BC0C6010E94320881110AC0D6011B967C
:105280001C921B971D961C921D971C961C9275C014
:1052900040E060EFC6010E94DF0788248394612C00
:1052A000412C99249394C6010E948C07782EC60144
:1052B0000E948C07B1E07B1203C08130C9F438C072
:1052C000262D30E078121EC0F6018385981630F442
:1052D000E20FF31F8381882159F402C0891541F040
:1052E000712CF8E0F91568F0D6011C969C9209C063
:1052F000F601E60DF11D8381882983837724739459
:1053000009C0492CF601E20FF31F9381882D809587
:1053100089238383672DC6010E94B0079394880C6C
:1053200019F4639488248394B7E0B61508F0BBCFD2
:10533000E0E4E91548F4D6011B964C921B97411006
:1053400008C01D965C9205C0F6011386158614866A
:1053500014C0D60113968C9113978823A9F3139642
:10536000FE0131962BE0C20ED11C9E2E8F2E8D9108
:105370008193CA16DB06D9F756C380E090E0A0E01F
:10538000B3ECF801818B928BA38BB48B62E070E05D
:10539000C8010E940D2085E190E00E9481338C01BC
:1053A00088E792E0D80111969C938E9385E090E077
:1053B0001C969C938E931B9780E890E01E969C937E
:1053C0008E931D97CC24CA94DC2C5096DC92CE92FE
:1053D0001F9751961C92519752961C925297539632
:1053E0001C92539754961C920E94E90AF80162831A
:1053F00073838483958382E390E0A0E0B0E08683AA
:105400009783A087B187128661E085E00E94130E22
:1054100060E070E085E00E94450F63E070E0C80145
:105420000E940D2083E290E00E9481338C0184E988
:1054300092E0D80111969C938E9385E290E01C96A1
:105440009C938E931B971E961C921E921D975096AE
:10545000DC92CE921F9756968C9356978BE0579678
:105460008C935797EDE0F4E0E4915896EC935897BD
:10547000E3E5F4E0E4915996EC9380E89EE3A0E044
:10548000B0E0F801868F978FA0A3B1A30E94E90A2C
:10549000D80112966D937D938D939C93159780ED13
:1054A00097E0A0E0B0E0F80186839783A087B187FA
:1054B000128662E086890E94130E80E398EFAFEFB8
:1054C000BFEFF801828F938FA48FB58F64E070E0F7
:1054D000C8010E940D2086E190E00E9481338C017A
:1054E00082EB92E0D80111969C938E9387E390E033
:1054F0001C969C938E931B9786E090E01E969C933F
:105500008E931D9787E30E949C0DF801908B8787EF
:10551000D28AC18A88EC90E0948B838B81E0858B62
:105520000E94E90AD80112966D937D938D939C9306
:10553000159786E990E0A0E0B0E0F80186839783B4
:10554000A087B187128661E085850E94130E65E011
:1055500070E0C8010E940D2082E00E947C1D8EE652
:1055600093E09A8389838091E9049091EA04A09161
:10557000EB04B091EC048B839C83AD83BE83CE019E
:1055800001966C010E94431E00E010E08091BE0471
:105590009091BF04081719070CF053C0E091E5047F
:1055A000F091E604C801880F991FE80FF91F808168
:1055B0009181009719F58091C8049091C9040E94C7
:1055C0004C1662E973E08091C8049091C9040E946E
:1055D0002B1E8091C8049091C9040E942D1E6EE973
:1055E00073E08091C8049091C9040E942B1E60E171
:1055F00077E280E090E00E94AF0AF9CFDC01ED9104
:10560000FC910284F385E02D19958823B9F0E0918F
:10561000C204F091C304EE0FFF1F8091E304909148
:10562000E404E80FF91F118300838091C204909174
:10563000C30401969093C3048093C2040F5F1F4F6D
:10564000A5CFEAE05E2EFAE08F2E912CA0E34A2E41
:10565000B0E06B2EB0E07B2E2091C6048091DB047D
:105660009091DC04222309F494C0E091C004F091ED
:10567000C104EE0FFF1F2091E5043091E604E20F14
:10568000F31F0190F081E02D0190F081E02D008169
:1056900011810E944A1DE091C004F091C104EE0FF7
:1056A000FF1F2091E5043091E604E20FF31F682FFD
:1056B00080819181F8011995E091C004F091C104B5
:1056C000EE0FFF1F8091E5049091E604E80FF91FAB
:1056D0000190F081E02D0190F081E02D0281138195
:1056E0008091DD049091DE040E944A1DE091C00487
:1056F000F091C104EE0FFF1F2091E5043091E60404
:10570000E20FF31F682F80819181F8011995809134
:10571000E1049091E2040E944A1D882309F4C4C068
:10572000E091C004F091C104EE0FFF1F8091E504E9
:105730009091E604E80FF91F80819181DC01ED91E1
:10574000FC910680F781E02D61E0199581E080935E
:10575000C70464EF71E080E090E00E94AF0AE0913E
:10576000C004F091C104EE0FFF1F8091E5049091F9
:10577000E604E80FF91F80819181DC01ED91FC9135
:105780000084F185E02D199581118EC01092C60418
:105790008BC00E944A1D882369F08091BE049091BD
:1057A000BF0401972091C0043091C1042817390724
:1057B0000CF4A6C18091DD049091DE040E944A1D84
:1057C000882341F08091C0049091C10418161906F5
:1057D0000CF4A9C1E091C004F091C104EE0FFF1FC9
:1057E0008091E5049091E604E80FF91F0190F081A3
:1057F000E02D0190F081E02D048115818091DF047E
:105800009091E0040E944A1DE091C004F091C1040F
:10581000EE0FFF1F2091E5043091E604E20FF31F25
:10582000682F80819181F80119958091E104909110
:10583000E2040E944A1D8823B9F1E091C004F0916E
:10584000C104EE0FFF1F8091E5049091E604E80F7C
:10585000F91F80819181DC01ED91FC910680F78137
:10586000E02D61E0199511E01093C70464EF71E039
:1058700080E090E00E94AF0AE091C004F091C10482
:10588000EE0FFF1F8091E5049091E604E80FF91FE9
:1058900080819181DC01ED91FC910084F185E02D06
:1058A000199581111093C6046091CA047091CB04BC
:1058B000C6010E94E0148B819C819093CF04809359
:1058C000CE048D819E81AF81B8858093D004909362
:1058D000D104A093D204B093D30489859A85AB8573
:1058E000BC858093D4049093D504A093D604B09340
:1058F000D7048D858093D8042E853F853093DA04B4
:105900002093D904883058F58CEC94E00E94462509
:10591000F70180838701D8018D918D018A3009F4C8
:1059200015C18CEC94E00E946724892B09F026C1F4
:105930000DC1C753DF4F88819981C95CD040AC014C
:10594000B6018CEC94E00E94C92365E070E080E031
:1059500090E00E94AF0A8CEC94E00E941626E09141
:10596000C004F091C104EE0FFF1F8091E5049091F7
:10597000E604E80FF91F808191816091C80470915D
:10598000C904DC01ED91FC910484F585E02D409182
:10599000C7041995E091C004F091C104EE0FFF1FF8
:1059A0008091E5049091E604E80FF91F80819181D0
:1059B000DC01ED91FC910684F785E02D199500E05E
:1059C00010E08091C2049091C3040817190714F5E0
:1059D000E091E304F091E404C801880F991FE80FF7
:1059E000F91F808191810817190789F0880F991F85
:1059F000E091E504F091E604E80FF91F80819181C0
:105A0000DC01ED91FC910684F785E02D19950F5F7F
:105A10001F4FD7CF1092C7046114710409F41CCE34
:105A20000E94000019CE67E0892D982D0E9474070E
:105A30009885891315CCF80183A1811123C081A514
:105A400092A50E943208692D782DD80199968D91E2
:105A50009C919A970E94130840E064EBF80181A59D
:105A600092A50E94DF07D80199968D919C919A97F3
:105A70000E948C07D82EF80181A592A50E943208B9
:105A8000DD20A9F1D8019496DC908981803109F458
:105A90008BC1692D782DC5010E94B6088D1518F4AB
:105AA000F80184A10AC08981803111F48CE005C01D
:105AB000692D782DC5010E94B608D80194968C9363
:105AC000949797968C9197978F5F97968C938981EF
:105AD000883289F030F4803171F0823209F0C0CB25
